:0200000280007C
:1080000000800820AD810800A58108007D8108005E
:10801000A5810800A5810800A581080000000000D6
:10802000000000000000000000000000A581080022
:10803000A581080000000000A58108009D830800BC
:10804000A5810800A5810800A5810800A581080078
:10805000A5810800A5810800A5810800A581080068
:10806000A5810800A5810800A5810800A581080058
:10807000A5810800A5810800A5810800A581080048
:10808000A5810800A5810800A5810800A581080038
:10809000A5810800A5810800A5810800A581080028
:1080A000A5810800A5810800A5810800A581080018
:1080B000A5810800A5810800A5810800A581080008
:1080C000A5810800A5810800A5810800A5810800F8
:1080D000A5810800A5810800A5810800A5810800E8
:1080E000A5810800A5810800A5810800A5810800D8
:0480F000A58108005E
:1080F4004FF44073194A1360C2F80032184B194AFE
:10810400C3F8E420184A1A629A6ED207FCD54FF4D9
:108114002002DA61154A9A629A6E9007FCD51A6BAE
:1081240022F0700242F010021A639A6E1107FCD515
:1081340012221A639A6E1207FCD500221A604FF4B9
:1081440070521A614FF4E052C3F80021084AC3F890
:10815400E4204FF40042074B5A657047000A0E4072
:1081640000060E4000434D500101370101060D2069
:1081740001434D50001A0E40084B86B05A680192D4
:108184009A6A0292DA6A03925A6B04929B6B059381
:10819400019B029B039B049B059BFEE700ED00E013
:1081A40008B5FFF7E9FF000008B5134A134B14495B
:1081B4008B4213D3134B144A14498B4213D300211B
:1081C400134B144A934213D3FFF792FF124A134BF3
:1081D4009A6000F099FF00F0E7F8FEE752F8040B0C
:1081E40043F8040BE4E752F8040B43F8040BE4E708
:1081F40043F8041BE6E700BF44930800000007208F
:10820400000007200000072044930800080007200E
:1082140008000720140807200080080000ED00E093
:10822400024B5A699207FCD5D861704700080E408A
:1082340008B5411E11F8010F00B908BDFFF7F0FFA2
:10824400F8E700F00F00092894BF30303730FFF70B
:10825400E7BF0068704700000148FFF7E9BF00BFAF
:108264005C9108007FB528B9302004B0BDE87040A7
:10827400FFF7D6BF01AB00211E460A25B0FBF5F47B
:1082840005FB1402303203F8012B0246092A20466A
:1082940001F10101F2D80139705CFFF7C1FF002937
:1082A400F9D104B070BD000038B50021044600F0D7
:1082B400E3FE20B12D20FFF7B3FF04F10044204674
:1082C40000F002FF054600F031FE0146204600F0B2
:1082D4007BFD124900F0C0FC4FF07C5100F076FDAC
:1082E40000F0F2FE632888BF0135044688BF0024ED
:1082F40028460A25FFF7B6FF2E20FFF791FFB4FBAF
:10830400F5F101F13000C0B2FFF78AFF05FB11401F
:10831400BDE838403030C0B2FFF782BF0000C84229
:1083240070B50A4B0A4D1E682C68331B002B0BDBFF
:108334000848FFF77DFF3046FFF794FF04F57A7491
:108344000548FFF775FF2C6070BD00BF08000720CB
:108354000400072064910800A3920800014610B5A8
:10836400040A000BFFF76DFF2046FFF76AFFCCB24B
:10837400C1F30310FFF765FF2046BDE81040FFF787
:1083840060BF10B50446000CFFF7E8FFA0B2BDE8DB
:108394001040FFF7E3BF0000024A13680133136083
:1083A400704700BF080007202DE99F4800F04CFAF1
:1083B40000F07CFA9648FFF73BFF62B64FF47A72FE
:1083C400944B1B68B3FBF2F3013BB3F1807F2FD3D3
:1083D4009148FFF72DFF9148FFF72AFF00F044FB77
:1083E4008F48FFF725FF8F48FFF722FFDFF8388219
:1083F4008E4FD8F81430DB0717D5D8F818303A78F0
:10840400DBB2C02B40F0D481DFF8249232B1D9F82A
:1084140000301BB1112B17D8FFF71EFF01233B704F
:108424000023844AC9F800301370FFF779FFE0E7AE
:108434004FF0E022F02153617F4B83F82310002397
:10844400936107231361C6E77C4D2979288800913D
:108454006979AA780191E98895F803A0029129899C
:108464006C8903914EF610418842D5D1012AD3D1AB
:10847400B4F5806FD0D804F112029342CCD12E46C9
:108484004FF6FF73002141F2210E04F1100035F87C
:1084940000B016F8012B83EA022308220FFA83FCAA
:1084A4005B00BCF1000F9BB202F1FF32B8BF83EA5C
:1084B4000E0312F0FF02F1D101318842E9D89B4545
:1084C400AAD15F480AF1FF36FFF7B2FE072E40D863
:1084D400DFE806F00431333537393B3D5948FFF7BF
:1084E400A7FE5948FFF7A4FE0098FFF7BBFE5748C4
:1084F400FFF79EFE0198FFF7B5FE5548FFF798FE7B
:108504000298FFF7AFFE5348FFF792FE0398FFF778
:1085140025FF5148FFF78CFE2046FFF7A3FE072EE8
:1085240072D8DFE816F018003A00D30008011801E9
:108534002B01710041014948D1E74948CFE7494837
:10854400CDE74948CBE74948C9E74948C7E749481F
:10855400C5E74948C3E70D2C7FF45EAF4748FFF7F2
:1085640067FE287CFFF77EFE4548FFF761FE45481D
:10857400FFF76FFEFFF705FF4348FFF759FE434837
:10858400FFF767FEFFF7FDFE4148FFF751FE414844
:10859400FFF75FFEFFF7F5FE36E0182C7FF43CAFE3
:1085A4003D48FFF745FE3D48FFF753FEFFF75AFEEF
:1085B4003B48FFF73DFEA88AFFF7D0FE3948FFF796
:1085C40037FEE88AFFF74EFE3748FFF731FE37489B
:1085D400FFF73FFEFFF768FE3548FFF729FE3548F1
:1085E400FFF737FEFFF760FE3348FFF721FE3348FD
:1085F400FFF72FFEFFF758FE3148FFF719FE314809
:10860400FFF727FEFFF750FE2F48FFF711FE05E79F
:1086140072910800000007207E91080097910800DD
:10862400A5910800B3910800008009400C000720C0
:10863400100007200D00072000ED00E014000720C3
:10864400C1910800CA9108000F9208001592080011
:108654001B920800219208002B920800D091080078
:10866400DA910800E2910800E6910800F091080010
:10867400F6910800FD910800079208003192080065
:1086840038920800250007203F920800290007209F
:10869400499208002D000720519208002400072069
:1086A400569208005D920800639208002C0007208F
:1086B40067920800300007206B92080034000720FE
:1086C4006F92080038000720A3920800032C7FF65D
:1086D400A3AE4A4B043C1D8A5B8AA4B29C427FF43D
:1086E4009BAE4748FFF7A4FD2846FFF7BBFD45486E
:1086F400FFF79EFD2046FFF7B5FD082D84D1002C21
:1087040082D14148FFF794FD404B414A4148C3F8A8
:10871400902AFFF78DFD4048FFF78AFDBFF34F8F86
:108724003E493F4BCA6802F4E0621343CB60BFF397
:108734004F8F00BFFDE7042C7FF46EAE3948FFF77E
:1087440077FD288AFFF78EFD3748FFF771FD688AA9
:10875400FFF788FD58E7082C7FF45EAE3348FFF737
:1087640078FD04463248FFF774FD05463148FFF7AB
:108774005FFD2846FFF705FE20460BE7032C7FF636
:108784004BAE1E4B043C1D8A5B8AA4B29C427FF410
:1087940043AE2948FFF74CFD2846FFF763FD274801
:1087A400FFF746FD2046D3E7002C3FF42DAF33E618
:1087B400002A3FF43AAE224C22786AB10022DC2B24
:1087C40022700ED0DD2B17D0FFF746FD00231D4A83
:1087D400237013603B7028E6DB2B03D10123237045
:1087E40023E6C02317490A68B2F5006FECD2501C87
:1087F400086002498B5418E6DB23F3E714000720D2
:10880400759208007B9208008792080000100E40C1
:10881400AD1007B09A920800A692080000ED00E09F
:108824000400FA05BD920800C7920800240007203E
:1088340028000720D0920800DC920800E492080087
:108844000D00072010000720134A144B1449C2F8E6
:10885400E430144BC3F8E4104FF4006111614FF499
:10886400003111614FF440625A601A6F22F4406281
:108874001A674FF480625A664FF4D6720A4B1A6034
:108884004FF0FF32DA604FF40C625A602D221A6204
:1088940050221A60704700BF00060E4000434D503E
:1088A400004F4950000E0E40008009404FF4807183
:1088B4004FF440720D4B1961C3F80428D3F87028A3
:1088C40003F5007322F44072C3F870264FF4D67295
:1088D400C3F864161A604FF0FF32DA604FF4006296
:1088E4005A602D221A6250221A60704700060E4008
:1088F4004FF08052034B5A634FF00052C3F83424B4
:10890400704700BF000E0E404FF08052034B1A63B5
:108914004FF00052C3F83024704700BF000E0E40E1
:10892400044B1A699107FCD5D8601A69D207FCD5A3
:108934009B687047008000404FF08072014B5A637F
:10894400FFF7EEBF00120E402DE9F74F1D46144607
:108954004FF0807B07460E468218B2F5F07F88BF41
:10896400C0F5F07401EB0502BDF83030DFF8B8A0B3
:1089740088BFA4B2B2F5A07F88BFC1F5A07500F18D
:10898400FF394FF02A0088BFADB2019301F1FF38DF
:10899400FFF7AEFFA144FFF7CFFF380ACAF830B0A3
:1089A400FFF7BEFF1FFA89F9F8B2FFF7B9FF4FEAE4
:1089B4001920FFF7B5FF5FFA89F0FFF7B1FF2B200D
:1089C400CAF834B0FFF7ACFFA844300ACAF830B094
:1089D400FFF7A6FF1FFA88F8F0B2FFF7A1FF4FEAEE
:1089E4001820FFF79DFF5FFA88F0FFF799FF6C43AB
:1089F4002C20CAF834B0FFF793FF019B0B4A5BBAF3
:108A0400CAF830B09BB2013C11698807FCD5D36029
:108A14001169C907FCD5013C9168F5D203B0BDE8E2
:108A2400F04FFFF771BF00BF00120E4000800040FE
:108A3400F0B4B0F5F07FBDF8107008D2B1F5A07FA6
:108A440005D222B11BB10497F0BCFFF77DBFF0BC87
:108A54007047013845F208231A46013B12B9013820
:108A6400F8D2704700BFF7E7724B734A2DE9F04F15
:108A7400C3F8E420714A724C1A614FF00C534FF062
:108A840080522360236123636E4B11261A601A619E
:108A94001A634FF060625A601A6F012722F0606215
:108AA4001A678022684B4FF000711A601A6042F214
:108AB40082024FF080755E6085B01A631F60FFF715
:108AC40023FF0520256321632163FFF7C2FF616350
:108AD4001420FFF7BEFF21639620FFF7BAFF384644
:108AE400FFF706FFFFF728FF9620FFF70DFFFFF7BC
:108AF400B0FF3046FFF7FCFEFFF71EFFB420FFF780
:108B040003FFFFF7A6FF3620FFF7F2FEFFF714FF7F
:108B140025632820FFF704FF3A20FFF7F5FEFFF74F
:108B2400E7FEFFF709FF256300245520FFF7F8FE51
:108B34001320FFF7E9FEFFF7DBFEFFF7FDFE0A2037
:108B4400FFF7E2FEFFF785FF2920FFF7D1FEFFF7CD
:108B5400F3FE3220FFF7D8FE2546FFF77AFFA1B2D5
:108B640001234FF4F072002000950134FFF760FFF9
:108B7400B4F5A07FF3D100214FF49670334EFFF784
:108B840068FF234608464FF4F0720095FFF7DCFEB9
:108B94003346002013F8012B72B908B10A3880B2A9
:108BA4004FF6FF77C0F5F070C0F34F0416F8013BA1
:108BB4002BB905B0BDE8F08F3C3080B2EAE7A3F1F1
:108BC4003005EDB2092D30D8214B05EB85051D4448
:108BD4000023322200937D2146232046FFF728FFFD
:108BE400A04605F1FF3A04357D214FF000091AF83B
:108BF40001BF2BFA09F3DB0707D50A2340461A46BF
:108C040000970391FFF714FF039909F101090A3151
:108C1400B9F1070F89B2ECD108F10A08AA451FFA85
:108C240088F8E1D13C34A4B2C0E72E2BFAD1094D27
:108C3400CEE700BF00060E4000434D50002800015F
:108C440000120E40000E0E4000800040EF9208001B
:108C5400F4920800269308004FF0FF0C1CEAD0524F
:108C64001EBF1CEAD15392EA0C0F93EA0C0F6FD08B
:108C74001A4480EA010C400218BF5FEA41211ED069
:108C84004FF0006343EA501043EA5111A0FB013155
:108C94000CF00040B1F5000F3EBF490041EAD3712A
:108CA4005B0040EA010062F17F02FD2A1DD8B3F1A6
:108CB400004F40EBC25008BF20F00100704790F015
:108CC400000F0CF0004C08BF49024CEA502040EA67
:108CD40051207F3AC2BFD2F1FF0340EAC25070472D
:108CE40040F400004FF00003013A5DDC12F1190F6B
:108CF400DCBF00F000407047C2F10002410021FADD
:108D040002F1C2F1200200FA02FC5FEA310040F1F4
:108D1400000053EA4C0308BF20EADC70704792F06D
:108D2400000F00F0004C02BF400010F4000F013AA5
:108D3400F9D040EA0C0093F0000F01F0004C02BFA0
:108D4400490011F4000F013BF9D041EA0C018FE70F
:108D54000CEAD15392EA0C0F18BF93EA0C0F0AD015
:108D640030F0004C18BF31F0004CD8D180EA01003B
:108D740000F00040704790F0000F17BF90F0004FD4
:108D8400084691F0000F91F0004F14D092EA0C0FB6
:108D940001D142020FD193EA0C0F03D14B0218BF49
:108DA400084608D180EA010000F0004040F0FE408F
:108DB40040F40000704740F0FE4040F4400070472B
:108DC40080F0004002E000BF81F0004142001FBF7C
:108DD4005FEA410392EA030F7FEA226C7FEA236C85
:108DE4006AD04FEA1262D2EB1363C1BFD21841407A
:108DF40048404140B8BF5B42192B88BF704710F010
:108E0400004F40F4000020F07F4018BF404211F0B2
:108E1400004F41F4000121F07F4118BF494292EA1A
:108E2400030F3FD0A2F1010241FA03FC10EB0C0046
:108E3400C3F1200301FA03F100F0004302D54942D3
:108E440060EB4000B0F5000F13D3B0F1807F06D380
:108E540040084FEA310102F10102FE2A51D2B1F178
:108E6400004F40EBC25008BF20F0010040EA03006D
:108E74007047490040EB0000013A28BFB0F5000FED
:108E8400EDD2B0FA80FCACF1080CB2EB0C0200FAA3
:108E94000CF0AABF00EBC25052421843BCBFD040F2
:108EA4001843704792F0000F81F4000106BF80F46C
:108EB40000000132013BB5E74FEA41037FEA226C2F
:108EC40018BF7FEA236C21D092EA030F04D092F0FA
:108ED400000F08BF0846704790EA010F1CBF00202E
:108EE400704712F07F4F04D1400028BF40F000408B
:108EF400704712F100723CBF00F50000704700F0AB
:108F0400004343F0FE4040F4000070477FEA2262D1
:108F140016BF08467FEA23630146420206BF5FEAA2
:108F2400412390EA010F40F4800070474FF00003A2
:108F340004E000BF10F0004348BF40425FEA000C69
:108F440008BF704743F0964301464FF000001CE011
:108F540050EA010208BF70474FF000030AE000BF67
:108F640050EA010208BF704711F0004302D54042A5
:108F740061EB41015FEA010C02BF84460146002017
:108F840043F0B64308BFA3F18053A3F50003BCFA32
:108F94008CF2083AA3EBC25310DB01FA02FC6344DF
:108FA40000FA02FCC2F12002BCF1004F20FA02F2E6
:108FB40043EB020008BF20F00100704702F12002D9
:108FC40001FA02FCC2F1200250EA4C0021FA02F23A
:108FD40043EB020008BF20EADC7070474FF0FF3C0F
:108FE40006E000BF4FF0010C02E000BF4FF0010C9F
:108FF4004DF804CD4FEA40024FEA41037FEA226C68
:1090040018BF7FEA236C11D001B052EA530C18BF89
:1090140090EA010F58BFB2EB030088BFC81738BFEE
:109024006FEAE17018BF40F0010070477FEA226CDC
:1090340002D15FEA402C05D17FEA236CE4D15FEAD8
:10904400412CE1D05DF8040B704700BF844608460C
:109054006146FFE70FB5FFF7C9FF002848BF10F1CD
:10906400000F0FBD4DF808EDFFF7F4FF0CBF012012
:1090740000205DF808FB00BF4DF808EDFFF7EAFF9C
:1090840034BF012000205DF808FB00BF4DF808ED57
:10909400FFF7E0FF94BF012000205DF808FB00BF4C
:1090A4004DF808EDFFF7D2FF94BF012000205DF8D2
:1090B40008FB00BF4DF808EDFFF7C8FF34BF0120DF
:1090C40000205DF808FB00BF42000ED2B2F1FE4F53
:1090D4000BD34FF09E03B3EB126209D44FEA002383
:1090E40043F0004323FA02F070474FF0000070474A
:1090F40012F1610F01D1420202D14FF0FF307047EB
:109104004FF00000704700BF70B50F4B0F4DAB42DE
:10911400A3EB050607D00024B61055F8043B013430
:109124009847A642F9D800F0FFF8094D094B5E1B99
:10913400AB424FEAA60606D0002455F8043B01349E
:109144009847A642F9D870BD000000000000000056
:1091540000000000000000004552524F520D0A006A
:1091640041505020616C697665206D733D0041501B
:10917400502073746172740D0A0041505020737949
:10918400737469636B20696E6974206572726F729F
:109194000D0A005446543A494F5F494E49540D0A4A
:1091A400005446543A494E49545F4F4B0D0A0054FB
:1091B40046543A46494C4C5F4F4B0D0A004F4B20E6
:1091C400747970653D0048454C4C4F0054454C45FE
:1091D4004D4554525900434F4D4D414E4400414377
:1091E4004B0054494D455F53594E43004556454E37
:1091F4005400434F4E464947004845415254424566
:10920400415400554E4B4E4F574E00207372633DF0
:1092140000206473743D00207365713D0020666C0A
:109224006167733D307800206C656E3D00206E6F81
:1092340064653D002066773D307800206275696C76
:10924400643D307800206361703D30780020757093
:109254003D002073743D307800206572723D00201B
:10926400563D0020493D0020543D002052504D3DC4
:109274000020636D643D0020706172616D5F6C65F8
:109284006E3D0020616374696F6E3D454E544552D6
:109294005F424F4F5400207265626F6F743D310D11
:1092A4000A0041505020656E74657220626F6F74BD
:1092B4006C6F616465720D0A002061636B5F736596
:1092C400713D00207374617475733D0020756E697F
:1092D400785F6D733D307800206576656E743D006F
:1092E40020646174615F6C656E3D0031302E350021
:1092F4003E5149453E00427F40004261514946216A
:1093040041454B311814127F1027454545393C4AD5
:109314004949300171090503364949493606494925
:10932400291E006060000000F8B500BFF8BC08BC4E
:109334009E467047F8B500BFF8BC08BC9E4670470F
:0893440000BD0105E803000073
:04000003800081AD4B
:00000001FF
