:0200000280007C
:1000000000800820B1010800A90108008101080052
:10001000A9010800A9010800A901080000000000CA
:10002000000000000000000000000000A90108001E
:10003000A901080000000000A9010800A9010800AA
:10004000A9010800A9010800A9010800A9010800E8
:10005000A9010800A9010800A9010800A9010800D8
:10006000A9010800A9010800A9010800A9010800C8
:10007000A9010800A9010800A9010800A9010800B8
:10008000A9010800A9010800A9010800A9010800A8
:10009000A9010800A9010800A9010800A901080098
:1000A000A9010800A9010800A9010800A901080088
:1000B000A9010800A9010800A9010800A901080078
:1000C000A9010800A9010800A9010800A901080068
:1000D000A9010800A9010800A9010800A901080058
:1000E000A9010800A9010800A9010800A901080048
:0400F000A90108005A
:1000F8004FF44073194A1360C2F80032184B194A7A
:10010800C3F8E420184A1A629A6ED207FCD54FF455
:100118002002DA61154A9A629A6E9007FCD51A6B2A
:1001280022F0700242F010021A639A6E1107FCD591
:1001380012221A639A6E1207FCD500221A604FF435
:1001480070521A614FF4E052C3F80021084AC3F80C
:10015800E4204FF40042074B5A657047000A0E40EE
:1001680000060E4000434D500101370101060D20E5
:1001780001434D50001A0E40084B86B05A68019250
:100188009A6A0292DA6A03925A6B04929B6B0593FD
:10019800019B029B039B049B059BFEE700ED00E08F
:1001A80008B5FFF7E9FF000008B5134A134B1449D7
:1001B8008B4213D3134B144A14498B4213D3002197
:1001C800134B144A934213D3FFF792FF124A134B6F
:1001D8009A6000F0F1FA00F07BFAFEE752F8040B9F
:1001E80043F8040BE4E752F8040B43F8040BE4E784
:1001F80043F8041BE6E700BF40080800000007209A
:10020800F0000720F000072030090800F40007205C
:10021800F4000720FE1107200000080000ED00E0B0
:10022800024B5A699207FCD5D86170470080094093
:10023800006870474FF0FF3330B5094D01448142E3
:1002480001D1D84330BD10F8012B5340082243F3A5
:1002580000042C40013A84EA5303F8D1EFE700BFC9
:100268002083B8ED4FF408221368506803F15F4308
:1002780003F57903B3F5C03F07D8A0F50823B3F514
:10028800F02F02D200F001007047002070470346AB
:10029800002081B1B3F5082F0ED3013B40F1FF30A8
:1002A8005B1840F10000B3F5801F70F1000034BF07
:1002B8000120002070470846704700002DE9FF41E3
:1002C8008DF80510ADF8082000211A0C0DF104086E
:1002D8008DF80C200A244246BDF82C60ADF80A308F
:1002E8001B0E8DF80D301D4B8DF804008DF806603F
:1002F8008DF8071012F8011B013C03F8011BF9D116
:100308000A9D174A2B46AF19BB421CD106F10A01B8
:1003180089B21248FFF78EFF0026014618F8010B34
:100328000136FFF77DFF0A2EF8D10091694611F8D2
:10033800010B0134FFF774FF042CF8D1BD4207D13B
:1003480004B0BDE8F08113F8011B02F8011FDBE7D8
:1003580015F8010BFFF764FFF0E700BFF401072071
:10036800FD010720002307B5CDE900120246194612
:100378007920FFF7A3FF03B05DF804FB13B5002451
:100388001346CDE9004402461F20FFF797FF02B04D
:1003980010BD0000F0B541F270754FF4FA660F4CCD
:1003A8000F4F104A01442368002B08BF3B46B3FB9C
:1003B800F5F37343012B38BF0123013B01D2002021
:1003C8000AE0D2F814C01CF0010FF6D0936900F8C7
:1003D800013B8842E7D10120F0BD00BFF0000720B3
:1003E80000BD0105008009402DE9FF48DFF8A09213
:1003F80000242046D9F81430DE07FBD5A54BD9F8E0
:1004080018101B5CC9B28B421ED10130042803D1DD
:10041800A14D15F8010BA0B90C2C10D1B1290ED1A2
:100428004BF20C1306210DF10A00ADF80830FFF766
:10043800B1FF70B901220721FFF7A0FFD8E70C46EA
:10044800D8E7FFF7EDFEE4E7A1F1550568426841FA
:10045800E2E79DF80A309DF80B50012BBDF80C70AF
:10046800BDF80E4002D0022201210CE0B7F5006F62
:1004780001D93A4679E047B139468848FFF78AFFFB
:1004880018B9022207212046D6E704210DEB010006
:10049800FFF780FF08B90322F4E702AA00231646F3
:1004A8007F49013312F8010B9BB2082B01F8010BAD
:1004B800F7D17A4A002392467A4998B2B8420ED3C5
:1004C80001A8FFF7B5FE07F1080180467448FFF759
:1004D800B1FE804509D088EA00020421D3E712F86A
:1004E800010B013301F8010FE7E76B1E052B00F242
:1004F800CA80DFE803F0031526839F78002FB8D160
:100508004FF480324FF408236749CDE90223674B43
:100518001022CDE9041331462046FFF723FF67E791
:10052800082FA6D15D48FFF783FE02466048FFF713
:100538007FFE01461046FFF7AAFE002853D102218C
:10054800A1E7092F95D95548FFF772FE0646594885
:10055800FFF76EFEBAF80480054608F10A039F42C9
:1005680087D1B8F5806F02D9424603218BE741460F
:100578003046FFF78CFE08B93246E0E74E48FFF7F1
:1005880059FE854238D03246A7E7F319A3F5002073
:10059800000A00F50062C3F5807505EB0225A3EBA0
:1005A800022E4649A8EB07034FEA022C9D424FF062
:1005B800FF0228BF1D460B469444ACEB020B9BF888
:1005C80000B0013A01F801BBF7D2002107F1090296
:1005D800524473448D4209D100F02AF9002854D0BE
:1005E8002F44B845D1D80022114695E712F801CF1B
:1005F800013103F801CBEDE70027F2E70C2F7FF478
:1006080038AF2648FFF714FE02462948FFF710FEC8
:1006180001462B48FFF70CFE05461046FFF737FE4C
:1006280000288CD01046FFF705FE85420246DAD036
:10063800082128E7002F7FF41CAFFFF713FE3A4686
:1006480008B909211FE739462046FFF78BFE104AF3
:1006580053699B05FCD500231A4A0293029B9342D7
:100668000CD9BFF34F8F1849184BCA6802F4E062DF
:100678001343CB60BFF34F8F00BFFDE700BF029B62
:1006880001330293EAE72A46EEE632460521FAE606
:10069800008009401708080010080800FE09072014
:1006A800F4010720FB010720FFFF0F0000010004F1
:1006B800020A0720040A0720080A0720F400072076
:1006C800060A07203F0D030000ED00E00400FA05CC
:1006D80008B500F03FF8194A194BD2F8901A994218
:1006E8004FF0000303D1C2F8903AFFF77DFE154999
:1006F8001548164C4269D50707D58269E55CD2B220
:10070800954216D10133042BEFD00139F2D1FFF70E
:10071800A9FD0028E9D04FF4082318685A6872B672
:100728004FF0E02421610A498B6080F308889047E4
:10073800FEE7553A53425341E7E700BF00100E4029
:10074800AD1007B0C042C00000800940170808007B
:1007580000ED00E0134A144B1449C2F8E430144B7E
:10076800C3F8E4104FF4006111614FF400311161D6
:100778004FF440625A601A6F22F440621A674FF4CD
:1007880080625A664FF4D6720A4B1A604FF0FF32F5
:10079800DA604FF40C625A602D221A6250221A60F5
:1007A800704700BF00060E4000434D50004F4950AF
:1007B800000E0E400080094070B50F4B0F4DAB4244
:1007C800A3EB050607D00024B61055F8043B013406
:1007D8009847A642F9D800F01DF8094D094B5E1B51
:1007E800AB424FEAA60606D0002455F8043B013474
:1007F8009847A642F9D870BD00000000000000002C
:100808000000000000000000424C3E4F4B0A00551B
:10081800AA55AA00F8B500BFF8BC08BC9E467047A8
:10082800F8B500BFF8BC08BC9E4670470000000041
:080838005FF800F09D000720AD
:100840000B4B0C4A1B68002B08BF134641F2707219
:10085000B3FBF2F364225343012B38BF0123013B66
:1008600001D2002070478268D207F8D50120704776
:10087000F000072000BD01052DE9F0410446FFF717
:10088000DFFFE0B1124E134DD6F800802F6848F418
:100890008033336047F480332B6072B60E4B03EA2B
:1008A000012141F0B44141F003016160A16862B6E9
:1008B0002046FFF7C5FFC6F800802F6010B9002062
:1008C000BDE8F08111F0060F0CBF01200020F7E712
:1008D000000A0E40000C0E4000FFFF00B0F5006F54
:1008E00038B519D2B0F5806F13D30C4CA0F58061E8
:1008F000002200F500600A4D0302A81800F014F869
:1009000098500432B2F5807FF7D12046BDE83840D8
:10091000B2E70146034CEBE7002038BD000C0E4067
:10092000F4000720000A0E405FF800F039020800CA
:0409300000BD010500
:04000003800001B1C7
:00000001FF
